{
  "_format": "hh-sol-artifact-1",
  "contractName": "WavePortal",
  "sourceName": "contracts/WavePortal.sol",
  "abi": [
    {
      "inputs": [],
      "stateMutability": "nonpayable",
      "type": "constructor"
    },
    {
      "anonymous": false,
      "inputs": [
        {
          "indexed": true,
          "internalType": "address",
          "name": "from",
          "type": "address"
        },
        {
          "indexed": false,
          "internalType": "uint256",
          "name": "timestamp",
          "type": "uint256"
        },
        {
          "indexed": false,
          "internalType": "string",
          "name": "message",
          "type": "string"
        }
      ],
      "name": "NewWave",
      "type": "event"
    },
    {
      "inputs": [
        {
          "internalType": "address",
          "name": "addr",
          "type": "address"
        }
      ],
      "name": "canWave",
      "outputs": [
        {
          "internalType": "bool",
          "name": "",
          "type": "bool"
        }
      ],
      "stateMutability": "view",
      "type": "function"
    },
    {
      "inputs": [],
      "name": "getAllWaves",
      "outputs": [
        {
          "components": [
            {
              "internalType": "address",
              "name": "waver",
              "type": "address"
            },
            {
              "internalType": "string",
              "name": "message",
              "type": "string"
            },
            {
              "internalType": "uint256",
              "name": "timestamp",
              "type": "uint256"
            }
          ],
          "internalType": "struct WavePortal.Wave[]",
          "name": "",
          "type": "tuple[]"
        }
      ],
      "stateMutability": "view",
      "type": "function"
    },
    {
      "inputs": [],
      "name": "getTotalWaves",
      "outputs": [
        {
          "internalType": "uint256",
          "name": "",
          "type": "uint256"
        }
      ],
      "stateMutability": "view",
      "type": "function"
    },
    {
      "inputs": [
        {
          "internalType": "address",
          "name": "",
          "type": "address"
        }
      ],
      "name": "lastWavedAt",
      "outputs": [
        {
          "internalType": "uint256",
          "name": "",
          "type": "uint256"
        }
      ],
      "stateMutability": "view",
      "type": "function"
    },
    {
      "inputs": [
        {
          "internalType": "string",
          "name": "_message",
          "type": "string"
        }
      ],
      "name": "wave",
      "outputs": [],
      "stateMutability": "nonpayable",
      "type": "function"
    }
  ],
  "bytecode": "0x60806040526103846001553480156200001757600080fd5b50620000636040518060400160405280601481526020017f5761766520706f7274616c2063726561746564210000000000000000000000008152506200006960201b620004f91760201c565b620001fd565b620001098160405160240162000080919062000176565b6040516020818303038152906040527f41304fac000000000000000000000000000000000000000000000000000000007bffffffffffffffffffffffffffffffffffffffffffffffffffffffff19166020820180517bffffffffffffffffffffffffffffffffffffffffffffffffffffffff83818316178352505050506200010c60201b60201c565b50565b60008151905060006a636f6e736f6c652e6c6f679050602083016000808483855afa5050505050565b600062000142826200019a565b6200014e8185620001a5565b935062000160818560208601620001b6565b6200016b81620001ec565b840191505092915050565b6000602082019050818103600083015262000192818462000135565b905092915050565b600081519050919050565b600082825260208201905092915050565b60005b83811015620001d6578082015181840152602081019050620001b9565b83811115620001e6576000848401525b50505050565b6000601f19601f8301169050919050565b610ccc806200020d6000396000f3fe608060405234801561001057600080fd5b50600436106100575760003560e01c80630ff42d4d1461005c578063449d46c01461008c5780639a2cdc08146100a8578063a42a4663146100c6578063bd43a908146100f6575b600080fd5b610076600480360381019061007191906106db565b610114565b6040516100839190610911565b60405180910390f35b6100a660048036038101906100a19190610704565b61017d565b005b6100b0610387565b6040516100bd919061096e565b60405180910390f35b6100e060048036038101906100db91906106db565b610390565b6040516100ed919061096e565b60405180910390f35b6100fe6103a8565b60405161010b91906108ef565b60405180910390f35b600042600154600360008573ffffffffffffffffffffffffffffffffffffffff1673ffffffffffffffffffffffffffffffffffffffff168152602001908152602001600020546101649190610a75565b10156101735760019050610178565b600090505b919050565b42600154600360003373ffffffffffffffffffffffffffffffffffffffff1673ffffffffffffffffffffffffffffffffffffffff168152602001908152602001600020546101cb9190610a75565b1061020b576040517f08c379a00000000000000000000000000000000000000000000000000000000081526004016102029061094e565b60405180910390fd5b600160008082825461021d9190610a75565b92505081905550600260405180606001604052803373ffffffffffffffffffffffffffffffffffffffff16815260200183815260200142815250908060018154018082558091505060019003906000526020600020906003020160009091909190915060008201518160000160006101000a81548173ffffffffffffffffffffffffffffffffffffffff021916908373ffffffffffffffffffffffffffffffffffffffff16021790555060208201518160010190805190602001906102e39291906105bb565b5060408201518160020155505042600360003373ffffffffffffffffffffffffffffffffffffffff1673ffffffffffffffffffffffffffffffffffffffff168152602001908152602001600020819055503373ffffffffffffffffffffffffffffffffffffffff167f5f7e16dc676677766a70e9c5628aa6c54ddb8b6e5188e2ae1e1f17f1ffbea716428360405161037c929190610989565b60405180910390a250565b60008054905090565b60036020528060005260406000206000915090505481565b60606002805480602002602001604051908101604052809291908181526020016000905b828210156104f057838290600052602060002090600302016040518060600160405290816000820160009054906101000a900473ffffffffffffffffffffffffffffffffffffffff1673ffffffffffffffffffffffffffffffffffffffff1673ffffffffffffffffffffffffffffffffffffffff16815260200160018201805461045590610b55565b80601f016020809104026020016040519081016040528092919081815260200182805461048190610b55565b80156104ce5780601f106104a3576101008083540402835291602001916104ce565b820191906000526020600020905b8154815290600101906020018083116104b157829003601f168201915b50505050508152602001600282015481525050815260200190600101906103cc565b50505050905090565b61058f8160405160240161050d919061092c565b6040516020818303038152906040527f41304fac000000000000000000000000000000000000000000000000000000007bffffffffffffffffffffffffffffffffffffffffffffffffffffffff19166020820180517bffffffffffffffffffffffffffffffffffffffffffffffffffffffff8381831617835250505050610592565b50565b60008151905060006a636f6e736f6c652e6c6f679050602083016000808483855afa5050505050565b8280546105c790610b55565b90600052602060002090601f0160209004810192826105e95760008555610630565b82601f1061060257805160ff1916838001178555610630565b82800160010185558215610630579182015b8281111561062f578251825591602001919060010190610614565b5b50905061063d9190610641565b5090565b5b8082111561065a576000816000905550600101610642565b5090565b600061067161066c846109de565b6109b9565b90508281526020810184848401111561068957600080fd5b610694848285610b13565b509392505050565b6000813590506106ab81610c7f565b92915050565b600082601f8301126106c257600080fd5b81356106d284826020860161065e565b91505092915050565b6000602082840312156106ed57600080fd5b60006106fb8482850161069c565b91505092915050565b60006020828403121561071657600080fd5b600082013567ffffffffffffffff81111561073057600080fd5b61073c848285016106b1565b91505092915050565b60006107518383610881565b905092915050565b61076281610acb565b82525050565b600061077382610a1f565b61077d8185610a42565b93508360208202850161078f85610a0f565b8060005b858110156107cb57848403895281516107ac8582610745565b94506107b783610a35565b925060208a01995050600181019050610793565b50829750879550505050505092915050565b6107e681610add565b82525050565b60006107f782610a2a565b6108018185610a53565b9350610811818560208601610b22565b61081a81610c45565b840191505092915050565b600061083082610a2a565b61083a8185610a64565b935061084a818560208601610b22565b61085381610c45565b840191505092915050565b600061086b600883610a64565b915061087682610c56565b602082019050919050565b60006060830160008301516108996000860182610759565b50602083015184820360208601526108b182826107ec565b91505060408301516108c660408601826108d1565b508091505092915050565b6108da81610b09565b82525050565b6108e981610b09565b82525050565b600060208201905081810360008301526109098184610768565b905092915050565b600060208201905061092660008301846107dd565b92915050565b600060208201905081810360008301526109468184610825565b905092915050565b600060208201905081810360008301526109678161085e565b9050919050565b600060208201905061098360008301846108e0565b92915050565b600060408201905061099e60008301856108e0565b81810360208301526109b08184610825565b90509392505050565b60006109c36109d4565b90506109cf8282610b87565b919050565b6000604051905090565b600067ffffffffffffffff8211156109f9576109f8610c16565b5b610a0282610c45565b9050602081019050919050565b6000819050602082019050919050565b600081519050919050565b600081519050919050565b6000602082019050919050565b600082825260208201905092915050565b600082825260208201905092915050565b600082825260208201905092915050565b6000610a8082610b09565b9150610a8b83610b09565b9250827fffffffffffffffffffffffffffffffffffffffffffffffffffffffffffffffff03821115610ac057610abf610bb8565b5b828201905092915050565b6000610ad682610ae9565b9050919050565b60008115159050919050565b600073ffffffffffffffffffffffffffffffffffffffff82169050919050565b6000819050919050565b82818337600083830152505050565b60005b83811015610b40578082015181840152602081019050610b25565b83811115610b4f576000848401525b50505050565b60006002820490506001821680610b6d57607f821691505b60208210811415610b8157610b80610be7565b5b50919050565b610b9082610c45565b810181811067ffffffffffffffff82111715610baf57610bae610c16565b5b80604052505050565b7f4e487b7100000000000000000000000000000000000000000000000000000000600052601160045260246000fd5b7f4e487b7100000000000000000000000000000000000000000000000000000000600052602260045260246000fd5b7f4e487b7100000000000000000000000000000000000000000000000000000000600052604160045260246000fd5b6000601f19601f8301169050919050565b7f576169742031356d000000000000000000000000000000000000000000000000600082015250565b610c8881610acb565b8114610c9357600080fd5b5056fea26469706673582212206af7f41f8dc5a0a7f1a926eaf9b53dd2d0e908413ac2a35a364ec3d2d1adc93e64736f6c63430008040033",
  "linkReferences": {},
  "deployedLinkReferences": {}
}